{
  "contractName": "TokenGui",
  "abi": [
    {
      "inputs": [
        {
          "internalType": "string",
          "name": "name",
          "type": "string"
        },
        {
          "internalType": "string",
          "name": "symbol",
          "type": "string"
        },
        {
          "internalType": "uint256",
          "name": "cap_",
          "type": "uint256"
        }
      ],
      "stateMutability": "nonpayable",
      "type": "constructor"
    },
    {
      "anonymous": false,
      "inputs": [
        {
          "indexed": true,
          "internalType": "address",
          "name": "owner",
          "type": "address"
        },
        {
          "indexed": true,
          "internalType": "address",
          "name": "spender",
          "type": "address"
        },
        {
          "indexed": false,
          "internalType": "uint256",
          "name": "value",
          "type": "uint256"
        }
      ],
      "name": "Approval",
      "type": "event"
    },
    {
      "anonymous": false,
      "inputs": [
        {
          "indexed": false,
          "internalType": "address",
          "name": "account",
          "type": "address"
        }
      ],
      "name": "Paused",
      "type": "event"
    },
    {
      "anonymous": false,
      "inputs": [
        {
          "indexed": true,
          "internalType": "bytes32",
          "name": "role",
          "type": "bytes32"
        },
        {
          "indexed": true,
          "internalType": "bytes32",
          "name": "previousAdminRole",
          "type": "bytes32"
        },
        {
          "indexed": true,
          "internalType": "bytes32",
          "name": "newAdminRole",
          "type": "bytes32"
        }
      ],
      "name": "RoleAdminChanged",
      "type": "event"
    },
    {
      "anonymous": false,
      "inputs": [
        {
          "indexed": true,
          "internalType": "bytes32",
          "name": "role",
          "type": "bytes32"
        },
        {
          "indexed": true,
          "internalType": "address",
          "name": "account",
          "type": "address"
        },
        {
          "indexed": true,
          "internalType": "address",
          "name": "sender",
          "type": "address"
        }
      ],
      "name": "RoleGranted",
      "type": "event"
    },
    {
      "anonymous": false,
      "inputs": [
        {
          "indexed": true,
          "internalType": "bytes32",
          "name": "role",
          "type": "bytes32"
        },
        {
          "indexed": true,
          "internalType": "address",
          "name": "account",
          "type": "address"
        },
        {
          "indexed": true,
          "internalType": "address",
          "name": "sender",
          "type": "address"
        }
      ],
      "name": "RoleRevoked",
      "type": "event"
    },
    {
      "anonymous": false,
      "inputs": [
        {
          "indexed": true,
          "internalType": "address",
          "name": "from",
          "type": "address"
        },
        {
          "indexed": true,
          "internalType": "address",
          "name": "to",
          "type": "address"
        },
        {
          "indexed": false,
          "internalType": "uint256",
          "name": "value",
          "type": "uint256"
        }
      ],
      "name": "Transfer",
      "type": "event"
    },
    {
      "anonymous": false,
      "inputs": [
        {
          "indexed": false,
          "internalType": "address",
          "name": "account",
          "type": "address"
        }
      ],
      "name": "Unpaused",
      "type": "event"
    },
    {
      "inputs": [],
      "name": "CAP_CHANGE_ROLE",
      "outputs": [
        {
          "internalType": "bytes32",
          "name": "",
          "type": "bytes32"
        }
      ],
      "stateMutability": "view",
      "type": "function",
      "constant": true
    },
    {
      "inputs": [],
      "name": "DEFAULT_ADMIN_ROLE",
      "outputs": [
        {
          "internalType": "bytes32",
          "name": "",
          "type": "bytes32"
        }
      ],
      "stateMutability": "view",
      "type": "function",
      "constant": true
    },
    {
      "inputs": [],
      "name": "MINTER_ROLE",
      "outputs": [
        {
          "internalType": "bytes32",
          "name": "",
          "type": "bytes32"
        }
      ],
      "stateMutability": "view",
      "type": "function",
      "constant": true
    },
    {
      "inputs": [],
      "name": "PAUSER_ROLE",
      "outputs": [
        {
          "internalType": "bytes32",
          "name": "",
          "type": "bytes32"
        }
      ],
      "stateMutability": "view",
      "type": "function",
      "constant": true
    },
    {
      "inputs": [
        {
          "internalType": "address",
          "name": "owner",
          "type": "address"
        },
        {
          "internalType": "address",
          "name": "spender",
          "type": "address"
        }
      ],
      "name": "allowance",
      "outputs": [
        {
          "internalType": "uint256",
          "name": "",
          "type": "uint256"
        }
      ],
      "stateMutability": "view",
      "type": "function",
      "constant": true
    },
    {
      "inputs": [
        {
          "internalType": "address",
          "name": "spender",
          "type": "address"
        },
        {
          "internalType": "uint256",
          "name": "amount",
          "type": "uint256"
        }
      ],
      "name": "approve",
      "outputs": [
        {
          "internalType": "bool",
          "name": "",
          "type": "bool"
        }
      ],
      "stateMutability": "nonpayable",
      "type": "function"
    },
    {
      "inputs": [
        {
          "internalType": "address",
          "name": "account",
          "type": "address"
        }
      ],
      "name": "balanceOf",
      "outputs": [
        {
          "internalType": "uint256",
          "name": "",
          "type": "uint256"
        }
      ],
      "stateMutability": "view",
      "type": "function",
      "constant": true
    },
    {
      "inputs": [
        {
          "internalType": "uint256",
          "name": "amount",
          "type": "uint256"
        }
      ],
      "name": "burn",
      "outputs": [],
      "stateMutability": "nonpayable",
      "type": "function"
    },
    {
      "inputs": [
        {
          "internalType": "address",
          "name": "account",
          "type": "address"
        },
        {
          "internalType": "uint256",
          "name": "amount",
          "type": "uint256"
        }
      ],
      "name": "burnFrom",
      "outputs": [],
      "stateMutability": "nonpayable",
      "type": "function"
    },
    {
      "inputs": [],
      "name": "decimals",
      "outputs": [
        {
          "internalType": "uint8",
          "name": "",
          "type": "uint8"
        }
      ],
      "stateMutability": "view",
      "type": "function",
      "constant": true
    },
    {
      "inputs": [
        {
          "internalType": "address",
          "name": "spender",
          "type": "address"
        },
        {
          "internalType": "uint256",
          "name": "subtractedValue",
          "type": "uint256"
        }
      ],
      "name": "decreaseAllowance",
      "outputs": [
        {
          "internalType": "bool",
          "name": "",
          "type": "bool"
        }
      ],
      "stateMutability": "nonpayable",
      "type": "function"
    },
    {
      "inputs": [
        {
          "internalType": "bytes32",
          "name": "role",
          "type": "bytes32"
        }
      ],
      "name": "getRoleAdmin",
      "outputs": [
        {
          "internalType": "bytes32",
          "name": "",
          "type": "bytes32"
        }
      ],
      "stateMutability": "view",
      "type": "function",
      "constant": true
    },
    {
      "inputs": [
        {
          "internalType": "bytes32",
          "name": "role",
          "type": "bytes32"
        },
        {
          "internalType": "uint256",
          "name": "index",
          "type": "uint256"
        }
      ],
      "name": "getRoleMember",
      "outputs": [
        {
          "internalType": "address",
          "name": "",
          "type": "address"
        }
      ],
      "stateMutability": "view",
      "type": "function",
      "constant": true
    },
    {
      "inputs": [
        {
          "internalType": "bytes32",
          "name": "role",
          "type": "bytes32"
        }
      ],
      "name": "getRoleMemberCount",
      "outputs": [
        {
          "internalType": "uint256",
          "name": "",
          "type": "uint256"
        }
      ],
      "stateMutability": "view",
      "type": "function",
      "constant": true
    },
    {
      "inputs": [
        {
          "internalType": "bytes32",
          "name": "role",
          "type": "bytes32"
        },
        {
          "internalType": "address",
          "name": "account",
          "type": "address"
        }
      ],
      "name": "grantRole",
      "outputs": [],
      "stateMutability": "nonpayable",
      "type": "function"
    },
    {
      "inputs": [
        {
          "internalType": "bytes32",
          "name": "role",
          "type": "bytes32"
        },
        {
          "internalType": "address",
          "name": "account",
          "type": "address"
        }
      ],
      "name": "hasRole",
      "outputs": [
        {
          "internalType": "bool",
          "name": "",
          "type": "bool"
        }
      ],
      "stateMutability": "view",
      "type": "function",
      "constant": true
    },
    {
      "inputs": [
        {
          "internalType": "address",
          "name": "spender",
          "type": "address"
        },
        {
          "internalType": "uint256",
          "name": "addedValue",
          "type": "uint256"
        }
      ],
      "name": "increaseAllowance",
      "outputs": [
        {
          "internalType": "bool",
          "name": "",
          "type": "bool"
        }
      ],
      "stateMutability": "nonpayable",
      "type": "function"
    },
    {
      "inputs": [],
      "name": "name",
      "outputs": [
        {
          "internalType": "string",
          "name": "",
          "type": "string"
        }
      ],
      "stateMutability": "view",
      "type": "function",
      "constant": true
    },
    {
      "inputs": [],
      "name": "paused",
      "outputs": [
        {
          "internalType": "bool",
          "name": "",
          "type": "bool"
        }
      ],
      "stateMutability": "view",
      "type": "function",
      "constant": true
    },
    {
      "inputs": [
        {
          "internalType": "bytes32",
          "name": "role",
          "type": "bytes32"
        },
        {
          "internalType": "address",
          "name": "account",
          "type": "address"
        }
      ],
      "name": "renounceRole",
      "outputs": [],
      "stateMutability": "nonpayable",
      "type": "function"
    },
    {
      "inputs": [
        {
          "internalType": "bytes32",
          "name": "role",
          "type": "bytes32"
        },
        {
          "internalType": "address",
          "name": "account",
          "type": "address"
        }
      ],
      "name": "revokeRole",
      "outputs": [],
      "stateMutability": "nonpayable",
      "type": "function"
    },
    {
      "inputs": [
        {
          "internalType": "bytes4",
          "name": "interfaceId",
          "type": "bytes4"
        }
      ],
      "name": "supportsInterface",
      "outputs": [
        {
          "internalType": "bool",
          "name": "",
          "type": "bool"
        }
      ],
      "stateMutability": "view",
      "type": "function",
      "constant": true
    },
    {
      "inputs": [],
      "name": "symbol",
      "outputs": [
        {
          "internalType": "string",
          "name": "",
          "type": "string"
        }
      ],
      "stateMutability": "view",
      "type": "function",
      "constant": true
    },
    {
      "inputs": [],
      "name": "totalSupply",
      "outputs": [
        {
          "internalType": "uint256",
          "name": "",
          "type": "uint256"
        }
      ],
      "stateMutability": "view",
      "type": "function",
      "constant": true
    },
    {
      "inputs": [
        {
          "internalType": "address",
          "name": "recipient",
          "type": "address"
        },
        {
          "internalType": "uint256",
          "name": "amount",
          "type": "uint256"
        }
      ],
      "name": "transfer",
      "outputs": [
        {
          "internalType": "bool",
          "name": "",
          "type": "bool"
        }
      ],
      "stateMutability": "nonpayable",
      "type": "function"
    },
    {
      "inputs": [
        {
          "internalType": "address",
          "name": "sender",
          "type": "address"
        },
        {
          "internalType": "address",
          "name": "recipient",
          "type": "address"
        },
        {
          "internalType": "uint256",
          "name": "amount",
          "type": "uint256"
        }
      ],
      "name": "transferFrom",
      "outputs": [
        {
          "internalType": "bool",
          "name": "",
          "type": "bool"
        }
      ],
      "stateMutability": "nonpayable",
      "type": "function"
    },
    {
      "inputs": [],
      "name": "cap",
      "outputs": [
        {
          "internalType": "uint256",
          "name": "",
          "type": "uint256"
        }
      ],
      "stateMutability": "view",
      "type": "function",
      "constant": true
    },
    {
      "inputs": [
        {
          "internalType": "uint256",
          "name": "newCap",
          "type": "uint256"
        }
      ],
      "name": "setCap",
      "outputs": [
        {
          "internalType": "bool",
          "name": "_success",
          "type": "bool"
        }
      ],
      "stateMutability": "nonpayable",
      "type": "function"
    },
    {
      "inputs": [
        {
          "internalType": "address",
          "name": "to",
          "type": "address"
        },
        {
          "internalType": "uint256",
          "name": "amount",
          "type": "uint256"
        }
      ],
      "name": "mint",
      "outputs": [],
      "stateMutability": "nonpayable",
      "type": "function"
    },
    {
      "inputs": [],
      "name": "pause",
      "outputs": [],
      "stateMutability": "nonpayable",
      "type": "function"
    },
    {
      "inputs": [],
      "name": "unpause",
      "outputs": [],
      "stateMutability": "nonpayable",
      "type": "function"
    }
  ],
  "bytecode": "0x60806040523480156200001157600080fd5b506040516200411238038062004112833981810160405281019062000037919062000594565b82828160059080519060200190620000519291906200045b565b5080600690805190602001906200006a9291906200045b565b5050506000600760006101000a81548160ff02191690831515021790555060008111620000ce576040517f08c379a0000000000000000000000000000000000000000000000000000000008152600401620000c5906200065e565b60405180910390fd5b80600881905550620000f96000801b620000ed620001c560201b60201c565b620001cd60201b60201c565b6200013a7f9f2df0fed2c77648de5860a4cc508cd0818c85b8b8a1ab4ceeef8d981c8956a66200012e620001c560201b60201c565b620001cd60201b60201c565b6200017b7f65d7a28e3265b37a6474929f336521b332c1681b933f6cb9f3376673440d862a6200016f620001c560201b60201c565b620001cd60201b60201c565b620001bc7f2865fb6486f1182ff260a98800c07add86e3bf298ef0eac98fcd12371e94abc9620001b0620001c560201b60201c565b620001cd60201b60201c565b505050620007e6565b600033905090565b620001e482826200021560201b620011211760201c565b6200021081600160008581526020019081526020016000206200022b60201b6200112f1790919060201c565b505050565b6200022782826200026360201b60201c565b5050565b60006200025b836000018373ffffffffffffffffffffffffffffffffffffffff1660001b6200035460201b60201c565b905092915050565b620002758282620003ce60201b60201c565b6200035057600160008084815260200190815260200160002060000160008373ffffffffffffffffffffffffffffffffffffffff1673ffffffffffffffffffffffffffffffffffffffff16815260200190815260200160002060006101000a81548160ff021916908315150217905550620002f5620001c560201b60201c565b73ffffffffffffffffffffffffffffffffffffffff168173ffffffffffffffffffffffffffffffffffffffff16837f2f8788117e7eff1d82e926ec794901d17c78024a50270940304540a733656f0d60405160405180910390a45b5050565b60006200036883836200043860201b60201c565b620003c3578260000182908060018154018082558091505060019003906000526020600020016000909190919091505582600001805490508360010160008481526020019081526020016000208190555060019050620003c8565b600090505b92915050565b600080600084815260200190815260200160002060000160008373ffffffffffffffffffffffffffffffffffffffff1673ffffffffffffffffffffffffffffffffffffffff16815260200190815260200160002060009054906101000a900460ff16905092915050565b600080836001016000848152602001908152602001600020541415905092915050565b828054620004699062000738565b90600052602060002090601f0160209004810192826200048d5760008555620004d9565b82601f10620004a857805160ff1916838001178555620004d9565b82800160010185558215620004d9579182015b82811115620004d8578251825591602001919060010190620004bb565b5b509050620004e89190620004ec565b5090565b5b8082111562000507576000816000905550600101620004ed565b5090565b6000620005226200051c84620006b4565b62000680565b9050828152602081018484840111156200053b57600080fd5b6200054884828562000702565b509392505050565b600082601f8301126200056257600080fd5b8151620005748482602086016200050b565b91505092915050565b6000815190506200058e81620007cc565b92915050565b600080600060608486031215620005aa57600080fd5b600084015167ffffffffffffffff811115620005c557600080fd5b620005d38682870162000550565b935050602084015167ffffffffffffffff811115620005f157600080fd5b620005ff8682870162000550565b925050604062000612868287016200057d565b9150509250925092565b60006200062b601283620006e7565b91507f546f6b656e4775693a20636170206973203000000000000000000000000000006000830152602082019050919050565b6000602082019050818103600083015262000679816200061c565b9050919050565b6000604051905081810181811067ffffffffffffffff82111715620006aa57620006a96200079d565b5b8060405250919050565b600067ffffffffffffffff821115620006d257620006d16200079d565b5b601f19601f8301169050602081019050919050565b600082825260208201905092915050565b6000819050919050565b60005b838110156200072257808201518184015260208101905062000705565b8381111562000732576000848401525b50505050565b600060028204905060018216806200075157607f821691505b602082108114156200076857620007676200076e565b5b50919050565b7f4e487b7100000000000000000000000000000000000000000000000000000000600052602260045260246000fd5b7f4e487b7100000000000000000000000000000000000000000000000000000000600052604160045260246000fd5b620007d781620006f8565b8114620007e357600080fd5b50565b61391c80620007f66000396000f3fe608060405234801561001057600080fd5b50600436106101e55760003560e01c80635c975abb1161010f578063a217fddf116100a2578063d539139311610071578063d5391393146105ba578063d547741f146105d8578063dd62ed3e146105f4578063e63ab1e914610624576101e5565b8063a217fddf1461050c578063a457c2d71461052a578063a9059cbb1461055a578063ca15c8731461058a576101e5565b80638456cb59116100de5780638456cb59146104845780639010d07c1461048e57806391d14854146104be57806395d89b41146104ee576101e5565b80635c975abb146103fc5780636b6433dc1461041a57806370a082311461043857806379cc679014610468576101e5565b8063313ce567116101875780633f4ba83a116101565780633f4ba83a1461038a57806340c10f191461039457806342966c68146103b057806347786d37146103cc576101e5565b8063313ce56714610302578063355274ea1461032057806336568abe1461033e578063395093511461035a576101e5565b806318160ddd116101c357806318160ddd1461026857806323b872dd14610286578063248a9ca3146102b65780632f2ff15d146102e6576101e5565b806301ffc9a7146101ea57806306fdde031461021a578063095ea7b314610238575b600080fd5b61020460048036038101906101ff9190612734565b610642565b6040516102119190613248565b60405180910390f35b6102226106bc565b60405161022f919061327e565b60405180910390f35b610252600480360381019061024d9190612657565b61074e565b60405161025f9190613248565b60405180910390f35b61027061076c565b60405161027d91906135c0565b60405180910390f35b6102a0600480360381019061029b9190612608565b610776565b6040516102ad9190613248565b60405180910390f35b6102d060048036038101906102cb9190612693565b610877565b6040516102dd9190613263565b60405180910390f35b61030060048036038101906102fb91906126bc565b610896565b005b61030a6108ca565b60405161031791906135db565b60405180910390f35b6103286108d3565b60405161033591906135c0565b60405180910390f35b610358600480360381019061035391906126bc565b6108dd565b005b610374600480360381019061036f9190612657565b610911565b6040516103819190613248565b60405180910390f35b6103926109bd565b005b6103ae60048036038101906103a99190612657565b610a37565b005b6103ca60048036038101906103c5919061275d565b610b11565b005b6103e660048036038101906103e1919061275d565b610b25565b6040516103f39190613248565b60405180910390f35b610404610c34565b6040516104119190613248565b60405180910390f35b610422610c4b565b60405161042f9190613263565b60405180910390f35b610452600480360381019061044d91906125a3565b610c6f565b60405161045f91906135c0565b60405180910390f35b610482600480360381019061047d9190612657565b610cb8565b005b61048c610d3c565b005b6104a860048036038101906104a391906126f8565b610db6565b6040516104b5919061322d565b60405180910390f35b6104d860048036038101906104d391906126bc565b610de5565b6040516104e59190613248565b60405180910390f35b6104f6610e4f565b604051610503919061327e565b60405180910390f35b610514610ee1565b6040516105219190613263565b60405180910390f35b610544600480360381019061053f9190612657565b610ee8565b6040516105519190613248565b60405180910390f35b610574600480360381019061056f9190612657565b610fdc565b6040516105819190613248565b60405180910390f35b6105a4600480360381019061059f9190612693565b610ffa565b6040516105b191906135c0565b60405180910390f35b6105c261101e565b6040516105cf9190613263565b60405180910390f35b6105f260048036038101906105ed91906126bc565b611042565b005b61060e600480360381019061060991906125cc565b611076565b60405161061b91906135c0565b60405180910390f35b61062c6110fd565b6040516106399190613263565b60405180910390f35b60007f5a05180f000000000000000000000000000000000000000000000000000000007bffffffffffffffffffffffffffffffffffffffffffffffffffffffff1916827bffffffffffffffffffffffffffffffffffffffffffffffffffffffff191614806106b557506106b48261115f565b5b9050919050565b6060600580546106cb906137e9565b80601f01602080910402602001604051908101604052809291908181526020018280546106f7906137e9565b80156107445780601f1061071957610100808354040283529160200191610744565b820191906000526020600020905b81548152906001019060200180831161072757829003601f168201915b5050505050905090565b600061076261075b6111d9565b84846111e1565b6001905092915050565b6000600454905090565b60006107838484846113ac565b6000600360008673ffffffffffffffffffffffffffffffffffffffff1673ffffffffffffffffffffffffffffffffffffffff16815260200190815260200160002060006107ce6111d9565b73ffffffffffffffffffffffffffffffffffffffff1673ffffffffffffffffffffffffffffffffffffffff1681526020019081526020016000205490508281101561084e576040517f08c379a000000000000000000000000000000000000000000000000000000000815260040161084590613440565b60405180910390fd5b61086b8561085a6111d9565b858461086691906136cd565b6111e1565b60019150509392505050565b6000806000838152602001908152602001600020600101549050919050565b6108a0828261162e565b6108c5816001600085815260200190815260200160002061112f90919063ffffffff16565b505050565b60006012905090565b6000600854905090565b6108e78282611657565b61090c81600160008581526020019081526020016000206116da90919063ffffffff16565b505050565b60006109b361091e6111d9565b84846003600061092c6111d9565b73ffffffffffffffffffffffffffffffffffffffff1673ffffffffffffffffffffffffffffffffffffffff16815260200190815260200160002060008873ffffffffffffffffffffffffffffffffffffffff1673ffffffffffffffffffffffffffffffffffffffff168152602001908152602001600020546109ae919061361d565b6111e1565b6001905092915050565b6109ee7f65d7a28e3265b37a6474929f336521b332c1681b933f6cb9f3376673440d862a6109e96111d9565b610de5565b610a2d576040517f08c379a0000000000000000000000000000000000000000000000000000000008152600401610a2490613520565b60405180910390fd5b610a3561170a565b565b610a687f9f2df0fed2c77648de5860a4cc508cd0818c85b8b8a1ab4ceeef8d981c8956a6610a636111d9565b610de5565b610aa7576040517f08c379a0000000000000000000000000000000000000000000000000000000008152600401610a9e90613380565b60405180910390fd5b610aaf6108d3565b81610ab861076c565b610ac2919061361d565b1115610b03576040517f08c379a0000000000000000000000000000000000000000000000000000000008152600401610afa90613360565b60405180910390fd5b610b0d82826117ac565b5050565b610b22610b1c6111d9565b82611901565b50565b6000610b587f2865fb6486f1182ff260a98800c07add86e3bf298ef0eac98fcd12371e94abc9610b536111d9565b610de5565b610b97576040517f08c379a0000000000000000000000000000000000000000000000000000000008152600401610b8e90613420565b60405180910390fd5b60008211610bda576040517f08c379a0000000000000000000000000000000000000000000000000000000008152600401610bd190613400565b60405180910390fd5b610be261076c565b821015610c24576040517f08c379a0000000000000000000000000000000000000000000000000000000008152600401610c1b906134e0565b60405180910390fd5b8160088190555060019050919050565b6000600760009054906101000a900460ff16905090565b7f2865fb6486f1182ff260a98800c07add86e3bf298ef0eac98fcd12371e94abc981565b6000600260008373ffffffffffffffffffffffffffffffffffffffff1673ffffffffffffffffffffffffffffffffffffffff168152602001908152602001600020549050919050565b6000610ccb83610cc66111d9565b611076565b905081811015610d10576040517f08c379a0000000000000000000000000000000000000000000000000000000008152600401610d0790613460565b60405180910390fd5b610d2d83610d1c6111d9565b8484610d2891906136cd565b6111e1565b610d378383611901565b505050565b610d6d7f65d7a28e3265b37a6474929f336521b332c1681b933f6cb9f3376673440d862a610d686111d9565b610de5565b610dac576040517f08c379a0000000000000000000000000000000000000000000000000000000008152600401610da3906132a0565b60405180910390fd5b610db4611ad7565b565b6000610ddd8260016000868152602001908152602001600020611b7a90919063ffffffff16565b905092915050565b600080600084815260200190815260200160002060000160008373ffffffffffffffffffffffffffffffffffffffff1673ffffffffffffffffffffffffffffffffffffffff16815260200190815260200160002060009054906101000a900460ff16905092915050565b606060068054610e5e906137e9565b80601f0160208091040260200160405190810160405280929190818152602001828054610e8a906137e9565b8015610ed75780601f10610eac57610100808354040283529160200191610ed7565b820191906000526020600020905b815481529060010190602001808311610eba57829003601f168201915b5050505050905090565b6000801b81565b60008060036000610ef76111d9565b73ffffffffffffffffffffffffffffffffffffffff1673ffffffffffffffffffffffffffffffffffffffff16815260200190815260200160002060008573ffffffffffffffffffffffffffffffffffffffff1673ffffffffffffffffffffffffffffffffffffffff16815260200190815260200160002054905082811015610fb4576040517f08c379a0000000000000000000000000000000000000000000000000000000008152600401610fab90613540565b60405180910390fd5b610fd1610fbf6111d9565b858584610fcc91906136cd565b6111e1565b600191505092915050565b6000610ff0610fe96111d9565b84846113ac565b6001905092915050565b600061101760016000848152602001908152602001600020611b94565b9050919050565b7f9f2df0fed2c77648de5860a4cc508cd0818c85b8b8a1ab4ceeef8d981c8956a681565b61104c8282611ba9565b61107181600160008581526020019081526020016000206116da90919063ffffffff16565b505050565b6000600360008473ffffffffffffffffffffffffffffffffffffffff1673ffffffffffffffffffffffffffffffffffffffff16815260200190815260200160002060008373ffffffffffffffffffffffffffffffffffffffff1673ffffffffffffffffffffffffffffffffffffffff16815260200190815260200160002054905092915050565b7f65d7a28e3265b37a6474929f336521b332c1681b933f6cb9f3376673440d862a81565b61112b8282611bd2565b5050565b6000611157836000018373ffffffffffffffffffffffffffffffffffffffff1660001b611cb2565b905092915050565b60007f7965db0b000000000000000000000000000000000000000000000000000000007bffffffffffffffffffffffffffffffffffffffffffffffffffffffff1916827bffffffffffffffffffffffffffffffffffffffffffffffffffffffff191614806111d257506111d182611d22565b5b9050919050565b600033905090565b600073ffffffffffffffffffffffffffffffffffffffff168373ffffffffffffffffffffffffffffffffffffffff161415611251576040517f08c379a000000000000000000000000000000000000000000000000000000000815260040161124890613500565b60405180910390fd5b600073ffffffffffffffffffffffffffffffffffffffff168273ffffffffffffffffffffffffffffffffffffffff1614156112c1576040517f08c379a00000000000000000000000000000000000000000000000000000000081526004016112b8906133a0565b60405180910390fd5b80600360008573ffffffffffffffffffffffffffffffffffffffff1673ffffffffffffffffffffffffffffffffffffffff16815260200190815260200160002060008473ffffffffffffffffffffffffffffffffffffffff1673ffffffffffffffffffffffffffffffffffffffff168152602001908152602001600020819055508173ffffffffffffffffffffffffffffffffffffffff168373ffffffffffffffffffffffffffffffffffffffff167f8c5be1e5ebec7d5bd14f71427d1e84f3dd0314c0f7b2291e5b200ac8c7c3b9258360405161139f91906135c0565b60405180910390a3505050565b600073ffffffffffffffffffffffffffffffffffffffff168373ffffffffffffffffffffffffffffffffffffffff16141561141c576040517f08c379a0000000000000000000000000000000000000000000000000000000008152600401611413906134a0565b60405180910390fd5b600073ffffffffffffffffffffffffffffffffffffffff168273ffffffffffffffffffffffffffffffffffffffff16141561148c576040517f08c379a000000000000000000000000000000000000000000000000000000000815260040161148390613300565b60405180910390fd5b611497838383611d8c565b6000600260008573ffffffffffffffffffffffffffffffffffffffff1673ffffffffffffffffffffffffffffffffffffffff1681526020019081526020016000205490508181101561151e576040517f08c379a0000000000000000000000000000000000000000000000000000000008152600401611515906133c0565b60405180910390fd5b818161152a91906136cd565b600260008673ffffffffffffffffffffffffffffffffffffffff1673ffffffffffffffffffffffffffffffffffffffff1681526020019081526020016000208190555081600260008573ffffffffffffffffffffffffffffffffffffffff1673ffffffffffffffffffffffffffffffffffffffff16815260200190815260200160002060008282546115bc919061361d565b925050819055508273ffffffffffffffffffffffffffffffffffffffff168473ffffffffffffffffffffffffffffffffffffffff167fddf252ad1be2c89b69c2b068fc378daa952ba7f163c4a11628f55a4df523b3ef8460405161162091906135c0565b60405180910390a350505050565b61163782610877565b611648816116436111d9565b611e2e565b6116528383611bd2565b505050565b61165f6111d9565b73ffffffffffffffffffffffffffffffffffffffff168173ffffffffffffffffffffffffffffffffffffffff16146116cc576040517f08c379a00000000000000000000000000000000000000000000000000000000081526004016116c390613560565b60405180910390fd5b6116d68282611ecb565b5050565b6000611702836000018373ffffffffffffffffffffffffffffffffffffffff1660001b611fac565b905092915050565b611712610c34565b611751576040517f08c379a000000000000000000000000000000000000000000000000000000000815260040161174890613320565b60405180910390fd5b6000600760006101000a81548160ff0219169083151502179055507f5db9ee0a495bf2e6ff9c91a7834c1ba4fdd244a5e8aa4e537bd38aeae4b073aa6117956111d9565b6040516117a2919061322d565b60405180910390a1565b600073ffffffffffffffffffffffffffffffffffffffff168273ffffffffffffffffffffffffffffffffffffffff16141561181c576040517f08c379a000000000000000000000000000000000000000000000000000000000815260040161181390613580565b60405180910390fd5b61182860008383611d8c565b806004600082825461183a919061361d565b9250508190555080600260008473ffffffffffffffffffffffffffffffffffffffff1673ffffffffffffffffffffffffffffffffffffffff1681526020019081526020016000206000828254611890919061361d565b925050819055508173ffffffffffffffffffffffffffffffffffffffff16600073ffffffffffffffffffffffffffffffffffffffff167fddf252ad1be2c89b69c2b068fc378daa952ba7f163c4a11628f55a4df523b3ef836040516118f591906135c0565b60405180910390a35050565b600073ffffffffffffffffffffffffffffffffffffffff168273ffffffffffffffffffffffffffffffffffffffff161415611971576040517f08c379a000000000000000000000000000000000000000000000000000000000815260040161196890613480565b60405180910390fd5b61197d82600083611d8c565b6000600260008473ffffffffffffffffffffffffffffffffffffffff1673ffffffffffffffffffffffffffffffffffffffff16815260200190815260200160002054905081811015611a04576040517f08c379a00000000000000000000000000000000000000000000000000000000081526004016119fb90613340565b60405180910390fd5b8181611a1091906136cd565b600260008573ffffffffffffffffffffffffffffffffffffffff1673ffffffffffffffffffffffffffffffffffffffff168152602001908152602001600020819055508160046000828254611a6591906136cd565b92505081905550600073ffffffffffffffffffffffffffffffffffffffff168373ffffffffffffffffffffffffffffffffffffffff167fddf252ad1be2c89b69c2b068fc378daa952ba7f163c4a11628f55a4df523b3ef84604051611aca91906135c0565b60405180910390a3505050565b611adf610c34565b15611b1f576040517f08c379a0000000000000000000000000000000000000000000000000000000008152600401611b16906133e0565b60405180910390fd5b6001600760006101000a81548160ff0219169083151502179055507f62e78cea01bee320cd4e420270b5ea74000d11b0c9f74754ebdbfc544b05a258611b636111d9565b604051611b70919061322d565b60405180910390a1565b6000611b89836000018361212a565b60001c905092915050565b6000611ba2826000016121c4565b9050919050565b611bb282610877565b611bc381611bbe6111d9565b611e2e565b611bcd8383611ecb565b505050565b611bdc8282610de5565b611cae57600160008084815260200190815260200160002060000160008373ffffffffffffffffffffffffffffffffffffffff1673ffffffffffffffffffffffffffffffffffffffff16815260200190815260200160002060006101000a81548160ff021916908315150217905550611c536111d9565b73ffffffffffffffffffffffffffffffffffffffff168173ffffffffffffffffffffffffffffffffffffffff16837f2f8788117e7eff1d82e926ec794901d17c78024a50270940304540a733656f0d60405160405180910390a45b5050565b6000611cbe83836121d5565b611d17578260000182908060018154018082558091505060019003906000526020600020016000909190919091505582600001805490508360010160008481526020019081526020016000208190555060019050611d1c565b600090505b92915050565b60007f01ffc9a7000000000000000000000000000000000000000000000000000000007bffffffffffffffffffffffffffffffffffffffffffffffffffffffff1916827bffffffffffffffffffffffffffffffffffffffffffffffffffffffff1916149050919050565b611d978383836121f8565b600073ffffffffffffffffffffffffffffffffffffffff168373ffffffffffffffffffffffffffffffffffffffff161415611e2957611dd46108d3565b81611ddd61076c565b611de7919061361d565b1115611e28576040517f08c379a0000000000000000000000000000000000000000000000000000000008152600401611e1f906134c0565b60405180910390fd5b5b505050565b611e388282610de5565b611ec757611e5d8173ffffffffffffffffffffffffffffffffffffffff166014612250565b611e6b8360001c6020612250565b604051602001611e7c9291906131f3565b6040516020818303038152906040526040517f08c379a0000000000000000000000000000000000000000000000000000000008152600401611ebe919061327e565b60405180910390fd5b5050565b611ed58282610de5565b15611fa857600080600084815260200190815260200160002060000160008373ffffffffffffffffffffffffffffffffffffffff1673ffffffffffffffffffffffffffffffffffffffff16815260200190815260200160002060006101000a81548160ff021916908315150217905550611f4d6111d9565b73ffffffffffffffffffffffffffffffffffffffff168173ffffffffffffffffffffffffffffffffffffffff16837ff6391f5c32d9c69d2a47ea670b442974b53935d1edc7fd64eb21e047a839171b60405160405180910390a45b5050565b6000808360010160008481526020019081526020016000205490506000811461211e576000600182611fde91906136cd565b9050600060018660000180549050611ff691906136cd565b90506000866000018281548110612036577f4e487b7100000000000000000000000000000000000000000000000000000000600052603260045260246000fd5b9060005260206000200154905080876000018481548110612080577f4e487b7100000000000000000000000000000000000000000000000000000000600052603260045260246000fd5b90600052602060002001819055508387600101600083815260200190815260200160002081905550866000018054806120e2577f4e487b7100000000000000000000000000000000000000000000000000000000600052603160045260246000fd5b60019003818190600052602060002001600090559055866001016000878152602001908152602001600020600090556001945050505050612124565b60009150505b92915050565b600081836000018054905011612175576040517f08c379a000000000000000000000000000000000000000000000000000000000815260040161216c906132c0565b60405180910390fd5b8260000182815481106121b1577f4e487b7100000000000000000000000000000000000000000000000000000000600052603260045260246000fd5b9060005260206000200154905092915050565b600081600001805490509050919050565b600080836001016000848152602001908152602001600020541415905092915050565b61220383838361254a565b61220b610c34565b1561224b576040517f08c379a0000000000000000000000000000000000000000000000000000000008152600401612242906135a0565b60405180910390fd5b505050565b6060600060028360026122639190613673565b61226d919061361d565b67ffffffffffffffff8111156122ac577f4e487b7100000000000000000000000000000000000000000000000000000000600052604160045260246000fd5b6040519080825280601f01601f1916602001820160405280156122de5781602001600182028036833780820191505090505b5090507f30000000000000000000000000000000000000000000000000000000000000008160008151811061233c577f4e487b7100000000000000000000000000000000000000000000000000000000600052603260045260246000fd5b60200101907effffffffffffffffffffffffffffffffffffffffffffffffffffffffffffff1916908160001a9053507f7800000000000000000000000000000000000000000000000000000000000000816001815181106123c6577f4e487b7100000000000000000000000000000000000000000000000000000000600052603260045260246000fd5b60200101907effffffffffffffffffffffffffffffffffffffffffffffffffffffffffffff1916908160001a905350600060018460026124069190613673565b612410919061361d565b90505b60018111156124fc577f3031323334353637383961626364656600000000000000000000000000000000600f861660108110612478577f4e487b7100000000000000000000000000000000000000000000000000000000600052603260045260246000fd5b1a60f81b8282815181106124b5577f4e487b7100000000000000000000000000000000000000000000000000000000600052603260045260246000fd5b60200101907effffffffffffffffffffffffffffffffffffffffffffffffffffffffffffff1916908160001a905350600485901c9450806124f5906137bf565b9050612413565b5060008414612540576040517f08c379a0000000000000000000000000000000000000000000000000000000008152600401612537906132e0565b60405180910390fd5b8091505092915050565b505050565b60008135905061255e8161388a565b92915050565b600081359050612573816138a1565b92915050565b600081359050612588816138b8565b92915050565b60008135905061259d816138cf565b92915050565b6000602082840312156125b557600080fd5b60006125c38482850161254f565b91505092915050565b600080604083850312156125df57600080fd5b60006125ed8582860161254f565b92505060206125fe8582860161254f565b9150509250929050565b60008060006060848603121561261d57600080fd5b600061262b8682870161254f565b935050602061263c8682870161254f565b925050604061264d8682870161258e565b9150509250925092565b6000806040838503121561266a57600080fd5b60006126788582860161254f565b92505060206126898582860161258e565b9150509250929050565b6000602082840312156126a557600080fd5b60006126b384828501612564565b91505092915050565b600080604083850312156126cf57600080fd5b60006126dd85828601612564565b92505060206126ee8582860161254f565b9150509250929050565b6000806040838503121561270b57600080fd5b600061271985828601612564565b925050602061272a8582860161258e565b9150509250929050565b60006020828403121561274657600080fd5b600061275484828501612579565b91505092915050565b60006020828403121561276f57600080fd5b600061277d8482850161258e565b91505092915050565b61278f81613701565b82525050565b61279e81613713565b82525050565b6127ad8161371f565b82525050565b60006127be826135f6565b6127c88185613601565b93506127d881856020860161378c565b6127e181613879565b840191505092915050565b60006127f7826135f6565b6128018185613612565b935061281181856020860161378c565b80840191505092915050565b600061282a602883613601565b91507f546f6b656e4775693a206d75737420686176652070617573657220726f6c652060008301527f746f2070617573650000000000000000000000000000000000000000000000006020830152604082019050919050565b6000612890602283613601565b91507f456e756d657261626c655365743a20696e646578206f7574206f6620626f756e60008301527f64730000000000000000000000000000000000000000000000000000000000006020830152604082019050919050565b60006128f6602083613601565b91507f537472696e67733a20686578206c656e67746820696e73756666696369656e746000830152602082019050919050565b6000612936602383613601565b91507f45524332303a207472616e7366657220746f20746865207a65726f206164647260008301527f65737300000000000000000000000000000000000000000000000000000000006020830152604082019050919050565b600061299c601483613601565b91507f5061757361626c653a206e6f74207061757365640000000000000000000000006000830152602082019050919050565b60006129dc602283613601565b91507f45524332303a206275726e20616d6f756e7420657863656564732062616c616e60008301527f63650000000000000000000000000000000000000000000000000000000000006020830152604082019050919050565b6000612a42601683613601565b91507f546f6b656e4775693a20636170206578636565646564000000000000000000006000830152602082019050919050565b6000612a82602783613601565b91507f546f6b656e4775693a206d7573742068617665206d696e74657220726f6c652060008301527f746f206d696e74000000000000000000000000000000000000000000000000006020830152604082019050919050565b6000612ae8602283613601565b91507f45524332303a20617070726f766520746f20746865207a65726f20616464726560008301527f73730000000000000000000000000000000000000000000000000000000000006020830152604082019050919050565b6000612b4e602683613601565b91507f45524332303a207472616e7366657220616d6f756e742065786365656473206260008301527f616c616e636500000000000000000000000000000000000000000000000000006020830152604082019050919050565b6000612bb4601083613601565b91507f5061757361626c653a20706175736564000000000000000000000000000000006000830152602082019050919050565b6000612bf4602b83613601565b91507f546f6b656e4775693a206e657720636170206e6565647320746f20626520626960008301527f67676572207468616e20300000000000000000000000000000000000000000006020830152604082019050919050565b6000612c5a602e83613601565b91507f546f6b656e4775693a206d75737420686176652063617020726f6c6520746f2060008301527f6368616e676520746865206361700000000000000000000000000000000000006020830152604082019050919050565b6000612cc0602883613601565b91507f45524332303a207472616e7366657220616d6f756e742065786365656473206160008301527f6c6c6f77616e63650000000000000000000000000000000000000000000000006020830152604082019050919050565b6000612d26602483613601565b91507f45524332303a206275726e20616d6f756e74206578636565647320616c6c6f7760008301527f616e6365000000000000000000000000000000000000000000000000000000006020830152604082019050919050565b6000612d8c602183613601565b91507f45524332303a206275726e2066726f6d20746865207a65726f2061646472657360008301527f73000000000000000000000000000000000000000000000000000000000000006020830152604082019050919050565b6000612df2602583613601565b91507f45524332303a207472616e736665722066726f6d20746865207a65726f20616460008301527f64726573730000000000000000000000000000000000000000000000000000006020830152604082019050919050565b6000612e58601983613601565b91507f45524332304361707065643a20636170206578636565646564000000000000006000830152602082019050919050565b6000612e98604783613601565b91507f546f6b656e4775693a206e657720636170206d7573742062652067726561746560008301527f72207468616e206f7220657175616c20746f2063757272656e7420746f74616c60208301527f20737570706c79000000000000000000000000000000000000000000000000006040830152606082019050919050565b6000612f24602483613601565b91507f45524332303a20617070726f76652066726f6d20746865207a65726f2061646460008301527f72657373000000000000000000000000000000000000000000000000000000006020830152604082019050919050565b6000612f8a602a83613601565b91507f546f6b656e4775693a206d75737420686176652070617573657220726f6c652060008301527f746f20756e7061757365000000000000000000000000000000000000000000006020830152604082019050919050565b6000612ff0601783613612565b91507f416363657373436f6e74726f6c3a206163636f756e74200000000000000000006000830152601782019050919050565b6000613030602583613601565b91507f45524332303a2064656372656173656420616c6c6f77616e63652062656c6f7760008301527f207a65726f0000000000000000000000000000000000000000000000000000006020830152604082019050919050565b6000613096601183613612565b91507f206973206d697373696e6720726f6c65200000000000000000000000000000006000830152601182019050919050565b60006130d6602f83613601565b91507f416363657373436f6e74726f6c3a2063616e206f6e6c792072656e6f756e636560008301527f20726f6c657320666f722073656c6600000000000000000000000000000000006020830152604082019050919050565b600061313c601f83613601565b91507f45524332303a206d696e7420746f20746865207a65726f2061646472657373006000830152602082019050919050565b600061317c602a83613601565b91507f45524332305061757361626c653a20746f6b656e207472616e7366657220776860008301527f696c6520706175736564000000000000000000000000000000000000000000006020830152604082019050919050565b6131de81613775565b82525050565b6131ed8161377f565b82525050565b60006131fe82612fe3565b915061320a82856127ec565b915061321582613089565b915061322182846127ec565b91508190509392505050565b60006020820190506132426000830184612786565b92915050565b600060208201905061325d6000830184612795565b92915050565b600060208201905061327860008301846127a4565b92915050565b6000602082019050818103600083015261329881846127b3565b905092915050565b600060208201905081810360008301526132b98161281d565b9050919050565b600060208201905081810360008301526132d981612883565b9050919050565b600060208201905081810360008301526132f9816128e9565b9050919050565b6000602082019050818103600083015261331981612929565b9050919050565b600060208201905081810360008301526133398161298f565b9050919050565b60006020820190508181036000830152613359816129cf565b9050919050565b6000602082019050818103600083015261337981612a35565b9050919050565b6000602082019050818103600083015261339981612a75565b9050919050565b600060208201905081810360008301526133b981612adb565b9050919050565b600060208201905081810360008301526133d981612b41565b9050919050565b600060208201905081810360008301526133f981612ba7565b9050919050565b6000602082019050818103600083015261341981612be7565b9050919050565b6000602082019050818103600083015261343981612c4d565b9050919050565b6000602082019050818103600083015261345981612cb3565b9050919050565b6000602082019050818103600083015261347981612d19565b9050919050565b6000602082019050818103600083015261349981612d7f565b9050919050565b600060208201905081810360008301526134b981612de5565b9050919050565b600060208201905081810360008301526134d981612e4b565b9050919050565b600060208201905081810360008301526134f981612e8b565b9050919050565b6000602082019050818103600083015261351981612f17565b9050919050565b6000602082019050818103600083015261353981612f7d565b9050919050565b6000602082019050818103600083015261355981613023565b9050919050565b60006020820190508181036000830152613579816130c9565b9050919050565b600060208201905081810360008301526135998161312f565b9050919050565b600060208201905081810360008301526135b98161316f565b9050919050565b60006020820190506135d560008301846131d5565b92915050565b60006020820190506135f060008301846131e4565b92915050565b600081519050919050565b600082825260208201905092915050565b600081905092915050565b600061362882613775565b915061363383613775565b9250827fffffffffffffffffffffffffffffffffffffffffffffffffffffffffffffffff038211156136685761366761381b565b5b828201905092915050565b600061367e82613775565b915061368983613775565b9250817fffffffffffffffffffffffffffffffffffffffffffffffffffffffffffffffff04831182151516156136c2576136c161381b565b5b828202905092915050565b60006136d882613775565b91506136e383613775565b9250828210156136f6576136f561381b565b5b828203905092915050565b600061370c82613755565b9050919050565b60008115159050919050565b6000819050919050565b60007fffffffff0000000000000000000000000000000000000000000000000000000082169050919050565b600073ffffffffffffffffffffffffffffffffffffffff82169050919050565b6000819050919050565b600060ff82169050919050565b60005b838110156137aa57808201518184015260208101905061378f565b838111156137b9576000848401525b50505050565b60006137ca82613775565b915060008214156137de576137dd61381b565b5b600182039050919050565b6000600282049050600182168061380157607f821691505b602082108114156138155761381461384a565b5b50919050565b7f4e487b7100000000000000000000000000000000000000000000000000000000600052601160045260246000fd5b7f4e487b7100000000000000000000000000000000000000000000000000000000600052602260045260246000fd5b6000601f19601f8301169050919050565b61389381613701565b811461389e57600080fd5b50565b6138aa8161371f565b81146138b557600080fd5b50565b6138c181613729565b81146138cc57600080fd5b50565b6138d881613775565b81146138e357600080fd5b5056fea264697066735822122092e48bdfa7bb78b9acea681c0bc831fa62a6965dfc93df4a00e70303b00ccff664736f6c63430008000033",
  "immutableReferences": {},
  "source": "// SPDX-License-Identifier: MIT\n\npragma solidity ^0.8.0;\n\nimport \"../../node_modules/@openzeppelin/contracts/token/ERC20/ERC20.sol\";\nimport \"../../node_modules/@openzeppelin/contracts/token/ERC20/extensions/ERC20Burnable.sol\";\nimport \"../../node_modules/@openzeppelin/contracts/token/ERC20/extensions/ERC20Pausable.sol\";\nimport \"../../node_modules/@openzeppelin/contracts/access/AccessControlEnumerable.sol\";\nimport \"../../node_modules/@openzeppelin/contracts/utils/Context.sol\";\n\n/**\n * @dev {ERC20} token, including:\n *\n *  - ability for holders to burn (destroy) their tokens\n *  - a minter role that allows for token minting (creation)\n *  - a pauser role that allows to stop all token transfers\n *\n * This contract uses {AccessControl} to lock permissioned functions using the\n * different roles - head to its documentation for details.\n *\n * The account that deploys the contract will be granted the minter and pauser\n * roles, as well as the default admin role, which will let it grant both minter\n * and pauser roles to other accounts.\n */\ncontract TokenGui is Context, AccessControlEnumerable, ERC20Burnable, ERC20Pausable {\n    bytes32 public constant MINTER_ROLE = keccak256(\"MINTER_ROLE\");\n    bytes32 public constant PAUSER_ROLE = keccak256(\"PAUSER_ROLE\");\n    bytes32 public constant CAP_CHANGE_ROLE = keccak256(\"CAP_ROLE\");\n    uint256 private _cap;\n\n    /**\n     * @dev Grants `DEFAULT_ADMIN_ROLE`, `MINTER_ROLE` and `PAUSER_ROLE` to the\n     * account that deploys the contract.\n     *\n     * See {ERC20-constructor}.\n     */\n    constructor(string memory name, string memory symbol, uint256 cap_) public ERC20(name, symbol) {\n        require(cap_ > 0, \"TokenGui: cap is 0\");\n        _cap = cap_;\n\n        _setupRole(DEFAULT_ADMIN_ROLE, _msgSender());\n\n        _setupRole(MINTER_ROLE, _msgSender());\n        _setupRole(PAUSER_ROLE, _msgSender());\n        _setupRole(CAP_CHANGE_ROLE, _msgSender());\n    }\n\n    /**\n     * @dev Returns the cap on the token's total supply.\n     */\n    function cap() public view virtual returns (uint256) {\n        return _cap;\n    }\n\n    function setCap(uint256 newCap) public returns(bool _success){\n        require(hasRole(CAP_CHANGE_ROLE, _msgSender()), \"TokenGui: must have cap role to change the cap\");\n        require(newCap > 0, \"TokenGui: new cap needs to be bigger than 0\");\n        require(newCap >= totalSupply(), \"TokenGui: new cap must be greater than or equal to current total supply\");\n        _cap = newCap;\n        _success = true;\n    }\n\n    /**\n     * @dev Creates `amount` new tokens for `to`.\n     *\n     * See {ERC20-_mint}.\n     *\n     * Requirements:\n     *\n     * - the caller must have the `MINTER_ROLE`.\n     */\n    function mint(address to, uint256 amount) public virtual {\n        require(hasRole(MINTER_ROLE, _msgSender()), \"TokenGui: must have minter role to mint\");\n        require(ERC20.totalSupply() + amount <= cap(), \"TokenGui: cap exceeded\");\n\n        _mint(to, amount);\n    }\n\n    /**\n     * @dev Pauses all token transfers.\n     *\n     * See {ERC20Pausable} and {Pausable-_pause}.\n     *\n     * Requirements:\n     *\n     * - the caller must have the `PAUSER_ROLE`.\n     */\n    function pause() public virtual {\n        require(hasRole(PAUSER_ROLE, _msgSender()), \"TokenGui: must have pauser role to pause\");\n        _pause();\n    }\n\n    /**\n     * @dev Unpauses all token transfers.\n     *\n     * See {ERC20Pausable} and {Pausable-_unpause}.\n     *\n     * Requirements:\n     *\n     * - the caller must have the `PAUSER_ROLE`.\n     */\n    function unpause() public virtual {\n        require(hasRole(PAUSER_ROLE, _msgSender()), \"TokenGui: must have pauser role to unpause\");\n        _unpause();\n    }\n\n    function _beforeTokenTransfer(address from, address to, uint256 amount) internal virtual override(ERC20, ERC20Pausable) {\n        super._beforeTokenTransfer(from, to, amount);\n\n        if (from == address(0)) { // When minting tokens\n            require(totalSupply() + amount <= cap(), \"ERC20Capped: cap exceeded\");\n        }\n    }\n}\n",
  "sourcePath": "/Users/Gui/dev/BlockchainAcademy/Token/contracts/TokenGui.sol",
  "compiler": {
    "name": "solc",
    "version": "0.8.0+commit.c7dfd78e.Emscripten.clang"
  },
  "schemaVersion": "3.4.0",
  "updatedAt": "2021-05-07T10:49:41.370Z",
  "networkType": "ethereum",
  "devdoc": {
    "details": "{ERC20} token, including:  - ability for holders to burn (destroy) their tokens  - a minter role that allows for token minting (creation)  - a pauser role that allows to stop all token transfers This contract uses {AccessControl} to lock permissioned functions using the different roles - head to its documentation for details. The account that deploys the contract will be granted the minter and pauser roles, as well as the default admin role, which will let it grant both minter and pauser roles to other accounts.",
    "kind": "dev",
    "methods": {
      "allowance(address,address)": {
        "details": "See {IERC20-allowance}."
      },
      "approve(address,uint256)": {
        "details": "See {IERC20-approve}. Requirements: - `spender` cannot be the zero address."
      },
      "balanceOf(address)": {
        "details": "See {IERC20-balanceOf}."
      },
      "burn(uint256)": {
        "details": "Destroys `amount` tokens from the caller. See {ERC20-_burn}."
      },
      "burnFrom(address,uint256)": {
        "details": "Destroys `amount` tokens from `account`, deducting from the caller's allowance. See {ERC20-_burn} and {ERC20-allowance}. Requirements: - the caller must have allowance for ``accounts``'s tokens of at least `amount`."
      },
      "cap()": {
        "details": "Returns the cap on the token's total supply."
      },
      "constructor": {
        "details": "Grants `DEFAULT_ADMIN_ROLE`, `MINTER_ROLE` and `PAUSER_ROLE` to the account that deploys the contract. See {ERC20-constructor}."
      },
      "decimals()": {
        "details": "Returns the number of decimals used to get its user representation. For example, if `decimals` equals `2`, a balance of `505` tokens should be displayed to a user as `5,05` (`505 / 10 ** 2`). Tokens usually opt for a value of 18, imitating the relationship between Ether and Wei. This is the value {ERC20} uses, unless this function is overridden; NOTE: This information is only used for _display_ purposes: it in no way affects any of the arithmetic of the contract, including {IERC20-balanceOf} and {IERC20-transfer}."
      },
      "decreaseAllowance(address,uint256)": {
        "details": "Atomically decreases the allowance granted to `spender` by the caller. This is an alternative to {approve} that can be used as a mitigation for problems described in {IERC20-approve}. Emits an {Approval} event indicating the updated allowance. Requirements: - `spender` cannot be the zero address. - `spender` must have allowance for the caller of at least `subtractedValue`."
      },
      "getRoleAdmin(bytes32)": {
        "details": "Returns the admin role that controls `role`. See {grantRole} and {revokeRole}. To change a role's admin, use {_setRoleAdmin}."
      },
      "getRoleMember(bytes32,uint256)": {
        "details": "Returns one of the accounts that have `role`. `index` must be a value between 0 and {getRoleMemberCount}, non-inclusive. Role bearers are not sorted in any particular way, and their ordering may change at any point. WARNING: When using {getRoleMember} and {getRoleMemberCount}, make sure you perform all queries on the same block. See the following https://forum.openzeppelin.com/t/iterating-over-elements-on-enumerableset-in-openzeppelin-contracts/2296[forum post] for more information."
      },
      "getRoleMemberCount(bytes32)": {
        "details": "Returns the number of accounts that have `role`. Can be used together with {getRoleMember} to enumerate all bearers of a role."
      },
      "grantRole(bytes32,address)": {
        "details": "Overload {grantRole} to track enumerable memberships"
      },
      "hasRole(bytes32,address)": {
        "details": "Returns `true` if `account` has been granted `role`."
      },
      "increaseAllowance(address,uint256)": {
        "details": "Atomically increases the allowance granted to `spender` by the caller. This is an alternative to {approve} that can be used as a mitigation for problems described in {IERC20-approve}. Emits an {Approval} event indicating the updated allowance. Requirements: - `spender` cannot be the zero address."
      },
      "mint(address,uint256)": {
        "details": "Creates `amount` new tokens for `to`. See {ERC20-_mint}. Requirements: - the caller must have the `MINTER_ROLE`."
      },
      "name()": {
        "details": "Returns the name of the token."
      },
      "pause()": {
        "details": "Pauses all token transfers. See {ERC20Pausable} and {Pausable-_pause}. Requirements: - the caller must have the `PAUSER_ROLE`."
      },
      "paused()": {
        "details": "Returns true if the contract is paused, and false otherwise."
      },
      "renounceRole(bytes32,address)": {
        "details": "Overload {renounceRole} to track enumerable memberships"
      },
      "revokeRole(bytes32,address)": {
        "details": "Overload {revokeRole} to track enumerable memberships"
      },
      "supportsInterface(bytes4)": {
        "details": "See {IERC165-supportsInterface}."
      },
      "symbol()": {
        "details": "Returns the symbol of the token, usually a shorter version of the name."
      },
      "totalSupply()": {
        "details": "See {IERC20-totalSupply}."
      },
      "transfer(address,uint256)": {
        "details": "See {IERC20-transfer}. Requirements: - `recipient` cannot be the zero address. - the caller must have a balance of at least `amount`."
      },
      "transferFrom(address,address,uint256)": {
        "details": "See {IERC20-transferFrom}. Emits an {Approval} event indicating the updated allowance. This is not required by the EIP. See the note at the beginning of {ERC20}. Requirements: - `sender` and `recipient` cannot be the zero address. - `sender` must have a balance of at least `amount`. - the caller must have allowance for ``sender``'s tokens of at least `amount`."
      },
      "unpause()": {
        "details": "Unpauses all token transfers. See {ERC20Pausable} and {Pausable-_unpause}. Requirements: - the caller must have the `PAUSER_ROLE`."
      }
    },
    "version": 1
  },
  "userdoc": {
    "kind": "user",
    "methods": {},
    "version": 1
  }
}